{
  "_format": "hh-sol-artifact-1",
  "contractName": "MockFactoryCreatedPool",
  "sourceName": "contracts/balancer-core-v2/test/MockPoolFactory.sol",
  "abi": [
    {
      "inputs": [],
      "name": "getPoolId",
      "outputs": [
        {
          "internalType": "bytes32",
          "name": "",
          "type": "bytes32"
        }
      ],
      "stateMutability": "view",
      "type": "function"
    }
  ],
  "bytecode": "0x6080604052348015600f57600080fd5b50608a8061001e6000396000f3fe6080604052348015600f57600080fd5b506004361060285760003560e01c806338fff2d014602d575b600080fd5b60336047565b604051603e9190604b565b60405180910390f35b3090565b9081526020019056fea2646970667358221220129b486446fdff6033ec0d3e9074e241ac8fd1994f066fe14039a7942d5a59b964736f6c63430007030033",
  "linkReferences": {},
  "deployedLinkReferences": {}
}