{
  "_format": "hh-sol-artifact-1",
  "contractName": "YTCZap",
  "sourceName": "contracts/YTCZap.sol",
  "abi": [
    {
      "inputs": [],
      "stateMutability": "nonpayable",
      "type": "constructor"
    },
    {
      "inputs": [
        {
          "internalType": "address",
          "name": "_ytcContractAddress",
          "type": "address"
        },
        {
          "internalType": "uint8",
          "name": "_n",
          "type": "uint8"
        },
        {
          "internalType": "address",
          "name": "_trancheAddress",
          "type": "address"
        },
        {
          "internalType": "bytes32",
          "name": "_balancerPoolId",
          "type": "bytes32"
        },
        {
          "internalType": "uint256",
          "name": "_amount",
          "type": "uint256"
        },
        {
          "internalType": "uint256",
          "name": "_expectedYtOutput",
          "type": "uint256"
        },
        {
          "internalType": "uint256",
          "name": "_expectedBaseTokensSpent",
          "type": "uint256"
        },
        {
          "internalType": "address",
          "name": "_baseToken",
          "type": "address"
        },
        {
          "internalType": "address",
          "name": "_yieldToken",
          "type": "address"
        },
        {
          "internalType": "uint256",
          "name": "_deadline",
          "type": "uint256"
        },
        {
          "internalType": "address payable",
          "name": "_uniswapContract",
          "type": "address"
        }
      ],
      "name": "compoundUniswap",
      "outputs": [
        {
          "internalType": "uint256",
          "name": "",
          "type": "uint256"
        },
        {
          "internalType": "uint256",
          "name": "",
          "type": "uint256"
        }
      ],
      "stateMutability": "payable",
      "type": "function"
    },
    {
      "inputs": [
        {
          "internalType": "address",
          "name": "_ytcContractAddress",
          "type": "address"
        },
        {
          "internalType": "uint8",
          "name": "_n",
          "type": "uint8"
        },
        {
          "internalType": "address",
          "name": "_trancheAddress",
          "type": "address"
        },
        {
          "internalType": "bytes32",
          "name": "_balancerPoolId",
          "type": "bytes32"
        },
        {
          "internalType": "uint256",
          "name": "_amount",
          "type": "uint256"
        },
        {
          "internalType": "uint256",
          "name": "_expectedYtOutput",
          "type": "uint256"
        },
        {
          "internalType": "uint256",
          "name": "_expectedBaseTokensSpent",
          "type": "uint256"
        },
        {
          "internalType": "address",
          "name": "_baseToken",
          "type": "address"
        },
        {
          "internalType": "address",
          "name": "_yieldToken",
          "type": "address"
        },
        {
          "internalType": "bytes",
          "name": "_zapperCallData",
          "type": "bytes"
        },
        {
          "internalType": "address payable",
          "name": "_zapperContract",
          "type": "address"
        }
      ],
      "name": "compoundZapper",
      "outputs": [
        {
          "internalType": "uint256",
          "name": "",
          "type": "uint256"
        },
        {
          "internalType": "uint256",
          "name": "",
          "type": "uint256"
        }
      ],
      "stateMutability": "payable",
      "type": "function"
    }
  ],
  "bytecode": "0x608060405234801561001057600080fd5b50610e57806100206000396000f3fe6080604052600436106100295760003560e01c80631a63eb741461002e578063f0cc20e814610058575b600080fd5b61004161003c3660046109b4565b61006b565b60405161004f929190610da2565b60405180910390f35b610041610066366004610a8c565b6101af565b6000803361dead1461007c57600080fd5b6100846108b0565b8e81600001906001600160a01b031690816001600160a01b0316815250508d816020019060ff16908160ff16815250508c81604001906001600160a01b031690816001600160a01b0316815250508b816060018181525050898160a00181815250508a816080018181525050888160c0018181525050878160e001906001600160a01b031690816001600160a01b031681525050868161010001906001600160a01b031690816001600160a01b03168152505061013f6108fc565b86868080601f016020809104026020016040519081016040528093929190818152602001838380828437600092018290525060408601949094525050506001600160a01b0386166060830152610198908390839061024e565b9350935050509c509c9a5050505050505050505050565b6000803361dead146101c057600080fd5b6101c86108b0565b6001600160a01b03808f16825260ff8e1660208301528c81166040830152606082018c905260a082018a9052608082018b905260c0820189905287811660e0830152861661010082015261021a6108fc565b8581526001600160a01b03851660208201526102388282600161024e565b9350935050509b509b9950505050505050505050565b6000806000806102618760e0015161048b565b90508461028557610280348860e0015188606001518960400151610526565b6102ab565b84600114156102ab576102ab348860e00151896080015189600001518a602001516105ab565b6102c2816102bc8960e0015161048b565b9061071f565b9150600082116102ed5760405162461bcd60e51b81526004016102e490610ca1565b60405180910390fd5b86608001518210156103115760405162461bcd60e51b81526004016102e490610cf7565b5060e08601518651608088015160405163095ea7b360e01b81526001600160a01b039093169263095ea7b39261034b929091600401610c88565b602060405180830381600087803b15801561036557600080fd5b505af1158015610379573d6000803e3d6000fd5b505050506040513d601f19601f8201168201806040525081019061039d9190610be0565b5060008087600001516001600160a01b031663117d8d0b89602001518a604001518b606001518c608001518d60a001518e60c001516040518763ffffffff1660e01b81526004016103f396959493929190610db0565b6040805180830381600087803b15801561040c57600080fd5b505af1158015610420573d6000803e3d6000fd5b505050506040513d601f19601f820116820180604052508101906104449190610c18565b60e08a01519193509150610464906001600160a01b031633838603610734565b61010088015161047e906001600160a01b03163384610734565b9097909650945050505050565b60006001600160a01b0382166104a2575047610521565b6040516370a0823160e01b81526001600160a01b038316906370a08231906104ce903090600401610c74565b60206040518083038186803b1580156104e657600080fd5b505afa1580156104fa573d6000803e3d6000fd5b505050506040513d601f19601f8201168201806040525081019061051e9190610c00565b90505b919050565b6000826001600160a01b031685836040516105419190610c3b565b60006040518083038185875af1925050503d806000811461057e576040519150601f19603f3d011682016040523d82523d6000602084013e610583565b606091505b50509050806105a45760405162461bcd60e51b81526004016102e490610cd3565b5050505050565b60408051600280825260608083018452849390929190602083019080368337019050509050816001600160a01b031663ad5c46486040518163ffffffff1660e01b815260040160206040518083038186803b15801561060957600080fd5b505afa15801561061d573d6000803e3d6000fd5b505050506040513d601f19601f820116820180604052508101906106419190610998565b8160008151811061064e57fe5b60200260200101906001600160a01b031690816001600160a01b031681525050858160018151811061067c57fe5b6001600160a01b039283166020918202929092010152604051637ff36ab560e01b815290831690637ff36ab59089906106bf908990869030908b90600401610d39565b6000604051808303818588803b1580156106d857600080fd5b505af11580156106ec573d6000803e3d6000fd5b50505050506040513d6000823e601f3d908101601f191682016040526107159190810190610b40565b5050505050505050565b600061072d8383600161078f565b9392505050565b61078a8363a9059cbb60e01b8484604051602401610753929190610c88565b60408051601f198184030181529190526020810180516001600160e01b03166001600160e01b0319909316929092179091526107a5565b505050565b600061079e848411158361084b565b5050900390565b60006060836001600160a01b0316836040516107c19190610c3b565b6000604051808303816000865af19150503d80600081146107fe576040519150601f19603f3d011682016040523d82523d6000602084013e610803565b606091505b5091509150600082141561081b573d6000803e3d6000fd5b61084581516000148061083d57508180602001905181019061083d9190610be0565b6101a261084b565b50505050565b81610859576108598161085d565b5050565b62461bcd60e51b6000908152602060045260076024526642414c23000030600a808404818106603090810160081b95839006959095019082900491820690940160101b939093010160c81b604452606490fd5b6040805161012081018252600080825260208201819052918101829052606081018290526080810182905260a0810182905260c0810182905260e0810182905261010081019190915290565b60405180608001604052806000815260200160006001600160a01b031681526020016060815260200160006001600160a01b031681525090565b803561052181610e09565b60008083601f840112610952578182fd5b5081356001600160401b03811115610968578182fd5b60208301915083602082850101111561098057600080fd5b9250929050565b803560ff8116811461052157600080fd5b6000602082840312156109a9578081fd5b815161072d81610e09565b6000806000806000806000806000806000806101608d8f0312156109d6578788fd5b6109e08d35610e09565b8c359b506109f060208e01610987565b9a506109ff60408e0135610e09565b60408d0135995060608d0135985060808d0135975060a08d0135965060c08d01359550610a2e60e08e01610936565b9450610a3d6101008e01610936565b93506001600160401b036101208e01351115610a57578283fd5b610a688e6101208f01358f01610941565b9093509150610a7a6101408e01610936565b90509295989b509295989b509295989b565b60008060008060008060008060008060006101608c8e031215610aad578081fd5b8b35610ab881610e09565b9a50610ac660208d01610987565b995060408c0135610ad681610e09565b985060608c0135975060808c0135965060a08c0135955060c08c0135945060e08c0135610b0281610e09565b93506101008c0135610b1381610e09565b92506101208c013591506101408c0135610b2c81610e09565b809150509295989b509295989b9093969950565b60006020808385031215610b52578182fd5b82516001600160401b0380821115610b68578384fd5b818501915085601f830112610b7b578384fd5b815181811115610b8757fe5b8381029150610b97848301610de6565b8181528481019084860184860187018a1015610bb1578788fd5b8795505b83861015610bd3578051835260019590950194918601918601610bb5565b5098975050505050505050565b600060208284031215610bf1578081fd5b8151801515811461072d578182fd5b600060208284031215610c11578081fd5b5051919050565b60008060408385031215610c2a578182fd5b505080516020909101519092909150565b60008251815b81811015610c5b5760208186018101518583015201610c41565b81811115610c695782828501525b509190910192915050565b6001600160a01b0391909116815260200190565b6001600160a01b03929092168252602082015260400190565b60208082526018908201527729bbb0b83832b2103a379024b73b30b634b2102a37b5b2b760411b604082015260600190565b6020808252600a908201526916985c0811985a5b195960b21b604082015260600190565b60208082526022908201527f4e6f7420656e6f75676820746f6b656e7320726563656976656420696e207377604082015261061760f41b606082015260800190565b600060808201868352602060808185015281875180845260a0860191508289019350845b81811015610d825784516001600160a01b031683529383019391830191600101610d5d565b50506001600160a01b039690961660408501525050506060015292915050565b918252602082015260400190565b60ff9690961686526001600160a01b0394909416602086015260408501929092526060840152608083015260a082015260c00190565b6040518181016001600160401b0381118282101715610e0157fe5b604052919050565b6001600160a01b0381168114610e1e57600080fd5b5056fea26469706673582212200a6ca7646c31c98b713d74140cd114260e42bda33b4d046d005d605a2349d48064736f6c63430007030033",
  "linkReferences": {},
  "deployedLinkReferences": {}
}