{
  "address": "0x867fe1461fc8A8A536AB0420FA866eEe19622a7d",
  "abi": [
    {
      "inputs": [
        {
          "internalType": "address",
          "name": "_ytcContractAddress",
          "type": "address"
        },
        {
          "internalType": "uint8",
          "name": "_n",
          "type": "uint8"
        },
        {
          "internalType": "address",
          "name": "_trancheAddress",
          "type": "address"
        },
        {
          "internalType": "bytes32",
          "name": "_balancerPoolId",
          "type": "bytes32"
        },
        {
          "internalType": "uint256",
          "name": "_amount",
          "type": "uint256"
        },
        {
          "internalType": "uint256",
          "name": "_expectedYtOutput",
          "type": "uint256"
        },
        {
          "internalType": "uint256",
          "name": "_expectedBaseTokensSpent",
          "type": "uint256"
        },
        {
          "internalType": "address",
          "name": "_baseToken",
          "type": "address"
        },
        {
          "internalType": "address",
          "name": "_yieldToken",
          "type": "address"
        },
        {
          "internalType": "uint256",
          "name": "_deadline",
          "type": "uint256"
        },
        {
          "internalType": "address payable",
          "name": "_uniswapContract",
          "type": "address"
        }
      ],
      "name": "compoundUniswap",
      "outputs": [
        {
          "internalType": "uint256",
          "name": "",
          "type": "uint256"
        },
        {
          "internalType": "uint256",
          "name": "",
          "type": "uint256"
        }
      ],
      "stateMutability": "payable",
      "type": "function"
    },
    {
      "inputs": [
        {
          "internalType": "address",
          "name": "_ytcContractAddress",
          "type": "address"
        },
        {
          "internalType": "uint8",
          "name": "_n",
          "type": "uint8"
        },
        {
          "internalType": "address",
          "name": "_trancheAddress",
          "type": "address"
        },
        {
          "internalType": "bytes32",
          "name": "_balancerPoolId",
          "type": "bytes32"
        },
        {
          "internalType": "uint256",
          "name": "_amount",
          "type": "uint256"
        },
        {
          "internalType": "uint256",
          "name": "_expectedYtOutput",
          "type": "uint256"
        },
        {
          "internalType": "uint256",
          "name": "_expectedBaseTokensSpent",
          "type": "uint256"
        },
        {
          "internalType": "address",
          "name": "_baseToken",
          "type": "address"
        },
        {
          "internalType": "address",
          "name": "_yieldToken",
          "type": "address"
        },
        {
          "internalType": "bytes",
          "name": "_zapperCallData",
          "type": "bytes"
        },
        {
          "internalType": "address payable",
          "name": "_zapperContract",
          "type": "address"
        }
      ],
      "name": "compoundZapper",
      "outputs": [
        {
          "internalType": "uint256",
          "name": "",
          "type": "uint256"
        },
        {
          "internalType": "uint256",
          "name": "",
          "type": "uint256"
        }
      ],
      "stateMutability": "payable",
      "type": "function"
    }
  ],
  "transactionHash": "0xa9125c55337c117a8b50754b0b9130b86afb2212df7147815b7cd3494e3e5ae4",
  "args": [],
  "solcInputHash": "7ffdcd0bf646d5c7e39ff97175b1e3c7",
  "bytecode": "0x608060405234801561001057600080fd5b50610db5806100206000396000f3fe6080604052600436106100295760003560e01c80631a63eb741461002e578063f0cc20e814610058575b600080fd5b61004161003c366004610912565b61006b565b60405161004f929190610d00565b60405180910390f35b6100416100663660046109ea565b610101565b60008061007661080e565b6100878f8f8f8f8f8f8f8f8f61015b565b905061009161085a565b86868080601f016020809104026020016040519081016040528093929190818152602001838380828437600092018290525060408601949094525050506001600160a01b03861660608301526100ea90839083906101bc565b9350935050509c509c9a5050505050505050505050565b60008061010c61080e565b61011d8e8e8e8e8e8e8e8e8e61015b565b905061012761085a565b8581526001600160a01b0385166020820152610145828260016101bc565b9350935050509b509b9950505050505050505050565b61016361080e565b61016b61080e565b6001600160a01b039a8b16815260ff9990991660208a0152509588166040880152606087019490945260a0860191909152608085019190915260c0840152831660e083015290911661010082015290565b6000806000806101cf8760e001516103f4565b9050846101ee576101e9348760600151886040015161048f565b610214565b846001141561021457610214348860e00151896080015189600001518a60200151610513565b61022b816102258960e001516103f4565b90610687565b9150600082116102565760405162461bcd60e51b815260040161024d90610bff565b60405180910390fd5b866080015182101561027a5760405162461bcd60e51b815260040161024d90610c55565b5060e08601518651608088015160405163095ea7b360e01b81526001600160a01b039093169263095ea7b3926102b4929091600401610be6565b602060405180830381600087803b1580156102ce57600080fd5b505af11580156102e2573d6000803e3d6000fd5b505050506040513d601f19601f820116820180604052508101906103069190610b3e565b5060008087600001516001600160a01b031663117d8d0b89602001518a604001518b606001518c608001518d60a001518e60c001516040518763ffffffff1660e01b815260040161035c96959493929190610d0e565b6040805180830381600087803b15801561037557600080fd5b505af1158015610389573d6000803e3d6000fd5b505050506040513d601f19601f820116820180604052508101906103ad9190610b76565b60e08a015191935091506103cd906001600160a01b03163383860361069c565b6101008801516103e7906001600160a01b0316338461069c565b9097909650945050505050565b60006001600160a01b03821661040b57504761048a565b6040516370a0823160e01b81526001600160a01b038316906370a0823190610437903090600401610bd2565b60206040518083038186803b15801561044f57600080fd5b505afa158015610463573d6000803e3d6000fd5b505050506040513d601f19601f820116820180604052508101906104879190610b5e565b90505b919050565b6000826001600160a01b031684836040516104aa9190610b99565b60006040518083038185875af1925050503d80600081146104e7576040519150601f19603f3d011682016040523d82523d6000602084013e6104ec565b606091505b505090508061050d5760405162461bcd60e51b815260040161024d90610c31565b50505050565b60408051600280825260608083018452849390929190602083019080368337019050509050816001600160a01b031663ad5c46486040518163ffffffff1660e01b815260040160206040518083038186803b15801561057157600080fd5b505afa158015610585573d6000803e3d6000fd5b505050506040513d601f19601f820116820180604052508101906105a991906108f6565b816000815181106105b657fe5b60200260200101906001600160a01b031690816001600160a01b03168152505085816001815181106105e457fe5b6001600160a01b039283166020918202929092010152604051637ff36ab560e01b815290831690637ff36ab5908990610627908990869030908b90600401610c97565b6000604051808303818588803b15801561064057600080fd5b505af1158015610654573d6000803e3d6000fd5b50505050506040513d6000823e601f3d908101601f1916820160405261067d9190810190610a9e565b5050505050505050565b6000610695838360016106f7565b9392505050565b6106f28363a9059cbb60e01b84846040516024016106bb929190610be6565b60408051601f198184030181529190526020810180516001600160e01b03166001600160e01b03199093169290921790915261070d565b505050565b600061070684841115836107a9565b5050900390565b60006060836001600160a01b0316836040516107299190610b99565b6000604051808303816000865af19150503d8060008114610766576040519150601f19603f3d011682016040523d82523d6000602084013e61076b565b606091505b50915091506000821415610783573d6000803e3d6000fd5b61050d8151600014806107a55750818060200190518101906107a59190610b3e565b6101a25b816107b7576107b7816107bb565b5050565b62461bcd60e51b6000908152602060045260076024526642414c23000030600a808404818106603090810160081b95839006959095019082900491820690940160101b939093010160c81b604452606490fd5b6040805161012081018252600080825260208201819052918101829052606081018290526080810182905260a0810182905260c0810182905260e0810182905261010081019190915290565b60405180608001604052806000815260200160006001600160a01b031681526020016060815260200160006001600160a01b031681525090565b803561048a81610d67565b60008083601f8401126108b0578182fd5b5081356001600160401b038111156108c6578182fd5b6020830191508360208285010111156108de57600080fd5b9250929050565b803560ff8116811461048a57600080fd5b600060208284031215610907578081fd5b815161069581610d67565b6000806000806000806000806000806000806101608d8f031215610934578788fd5b61093e8d35610d67565b8c359b5061094e60208e016108e5565b9a5061095d60408e0135610d67565b60408d0135995060608d0135985060808d0135975060a08d0135965060c08d0135955061098c60e08e01610894565b945061099b6101008e01610894565b93506001600160401b036101208e013511156109b5578283fd5b6109c68e6101208f01358f0161089f565b90935091506109d86101408e01610894565b90509295989b509295989b509295989b565b60008060008060008060008060008060006101608c8e031215610a0b578081fd5b8b35610a1681610d67565b9a50610a2460208d016108e5565b995060408c0135610a3481610d67565b985060608c0135975060808c0135965060a08c0135955060c08c0135945060e08c0135610a6081610d67565b93506101008c0135610a7181610d67565b92506101208c013591506101408c0135610a8a81610d67565b809150509295989b509295989b9093969950565b60006020808385031215610ab0578182fd5b82516001600160401b0380821115610ac6578384fd5b818501915085601f830112610ad9578384fd5b815181811115610ae557fe5b8381029150610af5848301610d44565b8181528481019084860184860187018a1015610b0f578788fd5b8795505b83861015610b31578051835260019590950194918601918601610b13565b5098975050505050505050565b600060208284031215610b4f578081fd5b81518015158114610695578182fd5b600060208284031215610b6f578081fd5b5051919050565b60008060408385031215610b88578182fd5b505080516020909101519092909150565b60008251815b81811015610bb95760208186018101518583015201610b9f565b81811115610bc75782828501525b509190910192915050565b6001600160a01b0391909116815260200190565b6001600160a01b03929092168252602082015260400190565b60208082526018908201527729bbb0b83832b2103a379024b73b30b634b2102a37b5b2b760411b604082015260600190565b6020808252600a908201526916985c0811985a5b195960b21b604082015260600190565b60208082526022908201527f4e6f7420656e6f75676820746f6b656e7320726563656976656420696e207377604082015261061760f41b606082015260800190565b600060808201868352602060808185015281875180845260a0860191508289019350845b81811015610ce05784516001600160a01b031683529383019391830191600101610cbb565b50506001600160a01b039690961660408501525050506060015292915050565b918252602082015260400190565b60ff9690961686526001600160a01b0394909416602086015260408501929092526060840152608083015260a082015260c00190565b6040518181016001600160401b0381118282101715610d5f57fe5b604052919050565b6001600160a01b0381168114610d7c57600080fd5b5056fea2646970667358221220344e183517ab641510848e6f346bc714b6099b111424fde947f5338d2ef2db6764736f6c63430007030033",
  "devdoc": {
    "kind": "dev",
    "methods": {},
    "version": 1
  },
  "userdoc": {
    "kind": "user",
    "methods": {},
    "notice": "Yield token compounding without having to swap to basetokens from ETH manually This contract was intended to be used for simulation purposes only",
    "version": 1
  },
  "storageLayout": {
    "storage": [],
    "types": null
  }
}