{
  "contracts/balancer-core-v2/test/Multicall.sol": {
    "Multicall": {
      "abi": [
        {
          "inputs": [
            {
              "components": [
                {
                  "internalType": "address",
                  "name": "target",
                  "type": "address"
                },
                {
                  "internalType": "bytes",
                  "name": "callData",
                  "type": "bytes"
                }
              ],
              "internalType": "struct Multicall.Call[]",
              "name": "calls",
              "type": "tuple[]"
            }
          ],
          "name": "aggregate",
          "outputs": [
            {
              "internalType": "uint256",
              "name": "blockNumber",
              "type": "uint256"
            },
            {
              "internalType": "bytes[]",
              "name": "returnData",
              "type": "bytes[]"
            }
          ],
          "stateMutability": "nonpayable",
          "type": "function"
        },
        {
          "inputs": [
            {
              "internalType": "uint256",
              "name": "blockNumber",
              "type": "uint256"
            }
          ],
          "name": "getBlockHash",
          "outputs": [
            {
              "internalType": "bytes32",
              "name": "blockHash",
              "type": "bytes32"
            }
          ],
          "stateMutability": "view",
          "type": "function"
        },
        {
          "inputs": [],
          "name": "getCurrentBlockCoinbase",
          "outputs": [
            {
              "internalType": "address",
              "name": "coinbase",
              "type": "address"
            }
          ],
          "stateMutability": "view",
          "type": "function"
        },
        {
          "inputs": [],
          "name": "getCurrentBlockDifficulty",
          "outputs": [
            {
              "internalType": "uint256",
              "name": "difficulty",
              "type": "uint256"
            }
          ],
          "stateMutability": "view",
          "type": "function"
        },
        {
          "inputs": [],
          "name": "getCurrentBlockGasLimit",
          "outputs": [
            {
              "internalType": "uint256",
              "name": "gaslimit",
              "type": "uint256"
            }
          ],
          "stateMutability": "view",
          "type": "function"
        },
        {
          "inputs": [],
          "name": "getCurrentBlockTimestamp",
          "outputs": [
            {
              "internalType": "uint256",
              "name": "timestamp",
              "type": "uint256"
            }
          ],
          "stateMutability": "view",
          "type": "function"
        },
        {
          "inputs": [
            {
              "internalType": "address",
              "name": "addr",
              "type": "address"
            }
          ],
          "name": "getEthBalance",
          "outputs": [
            {
              "internalType": "uint256",
              "name": "balance",
              "type": "uint256"
            }
          ],
          "stateMutability": "view",
          "type": "function"
        },
        {
          "inputs": [],
          "name": "getLastBlockHash",
          "outputs": [
            {
              "internalType": "bytes32",
              "name": "blockHash",
              "type": "bytes32"
            }
          ],
          "stateMutability": "view",
          "type": "function"
        }
      ],
      "devdoc": {
        "author": "Michael Elliot <mike@makerdao.com>Joshua Levine <joshua@makerdao.com>Nick Johnson <arachnid@notdot.net>",
        "kind": "dev",
        "methods": {},
        "title": "Multicall - Aggregate results from multiple read-only function calls",
        "version": 1
      },
      "evm": {
        "bytecode": {
          "linkReferences": {},
          "object": "608060405234801561001057600080fd5b5061056b806100206000396000f3fe608060405234801561001057600080fd5b50600436106100785760003560e01c80630f28c97d1461007d578063252dba421461009b57806327e86d6e146100bc5780634d2301cc146100c457806372425d9d146100d757806386d516e8146100df578063a8b0574e146100e7578063ee82ac5e146100fc575b600080fd5b61008561010f565b6040516100929190610433565b60405180910390f35b6100ae6100a93660046102b5565b610113565b604051610092929190610461565b610085610252565b6100856100d2366004610294565b61025b565b610085610268565b61008561026c565b6100ef610270565b604051610092919061041f565b61008561010a3660046103eb565b610274565b4290565b8051439060609067ffffffffffffffff8111801561013057600080fd5b5060405190808252806020026020018201604052801561016457816020015b606081526020019060019003908161014f5790505b50905060005b835181101561024c576000606085838151811061018357fe5b6020026020010151600001516001600160a01b03168684815181106101a457fe5b6020026020010151602001516040516101bd9190610403565b6000604051808303816000865af19150503d80600081146101fa576040519150601f19603f3d011682016040523d82523d6000602084013e6101ff565b606091505b50915091508161022a5760405162461bcd60e51b81526004016102219061043c565b60405180910390fd5b8084848151811061023757fe5b6020908102919091010152505060010161016a565b50915091565b60001943014090565b6001600160a01b03163190565b4490565b4590565b4190565b4090565b80356001600160a01b038116811461028f57600080fd5b919050565b6000602082840312156102a5578081fd5b6102ae82610278565b9392505050565b600060208083850312156102c7578182fd5b67ffffffffffffffff80843511156102dd578283fd5b8335840185601f8201126102ef578384fd5b8035828111156102fb57fe5b61030884858302016104e1565b81815284810190838601875b848110156103dc5781358601601f196040828e0382011215610334578a8bfd5b604051604081018181108b8211171561034957fe5b604052610357838c01610278565b815260408301358a81111561036a578c8dfd5b8084019350508d603f84011261037e578b8cfd5b8a8301358a81111561038c57fe5b61039c8c84601f840116016104e1565b92508083528e60408286010111156103b2578c8dfd5b80604085018d85013782018b018c9052808b01919091528552509287019290870190600101610314565b50909998505050505050505050565b6000602082840312156103fc578081fd5b5035919050565b60008251610415818460208701610505565b9190910192915050565b6001600160a01b0391909116815260200190565b90815260200190565b6020808252600b908201526a10d0531317d1905253115160aa1b604082015260600190565b600060408201848352602060408185015281855180845260608601915060608382028701019350828701855b828110156104d357878603605f19018452815180518088526104b481888a01898501610505565b601f01601f19169690960185019550928401929084019060010161048d565b509398975050505050505050565b60405181810167ffffffffffffffff811182821017156104fd57fe5b604052919050565b60005b83811015610520578181015183820152602001610508565b8381111561052f576000848401525b5050505056fea2646970667358221220b0a215a956477262df99d2b7e80e792b9ff3017a45c908058512798d1163268764736f6c63430007030033",
          "opcodes": "PUSH1 0x80 PUSH1 0x40 MSTORE CALLVALUE DUP1 ISZERO PUSH2 0x10 JUMPI PUSH1 0x0 DUP1 REVERT JUMPDEST POP PUSH2 0x56B DUP1 PUSH2 0x20 PUSH1 0x0 CODECOPY PUSH1 0x0 RETURN INVALID PUSH1 0x80 PUSH1 0x40 MSTORE CALLVALUE DUP1 ISZERO PUSH2 0x10 JUMPI PUSH1 0x0 DUP1 REVERT JUMPDEST POP PUSH1 0x4 CALLDATASIZE LT PUSH2 0x78 JUMPI PUSH1 0x0 CALLDATALOAD PUSH1 0xE0 SHR DUP1 PUSH4 0xF28C97D EQ PUSH2 0x7D JUMPI DUP1 PUSH4 0x252DBA42 EQ PUSH2 0x9B JUMPI DUP1 PUSH4 0x27E86D6E EQ PUSH2 0xBC JUMPI DUP1 PUSH4 0x4D2301CC EQ PUSH2 0xC4 JUMPI DUP1 PUSH4 0x72425D9D EQ PUSH2 0xD7 JUMPI DUP1 PUSH4 0x86D516E8 EQ PUSH2 0xDF JUMPI DUP1 PUSH4 0xA8B0574E EQ PUSH2 0xE7 JUMPI DUP1 PUSH4 0xEE82AC5E EQ PUSH2 0xFC JUMPI JUMPDEST PUSH1 0x0 DUP1 REVERT JUMPDEST PUSH2 0x85 PUSH2 0x10F JUMP JUMPDEST PUSH1 0x40 MLOAD PUSH2 0x92 SWAP2 SWAP1 PUSH2 0x433 JUMP JUMPDEST PUSH1 0x40 MLOAD DUP1 SWAP2 SUB SWAP1 RETURN JUMPDEST PUSH2 0xAE PUSH2 0xA9 CALLDATASIZE PUSH1 0x4 PUSH2 0x2B5 JUMP JUMPDEST PUSH2 0x113 JUMP JUMPDEST PUSH1 0x40 MLOAD PUSH2 0x92 SWAP3 SWAP2 SWAP1 PUSH2 0x461 JUMP JUMPDEST PUSH2 0x85 PUSH2 0x252 JUMP JUMPDEST PUSH2 0x85 PUSH2 0xD2 CALLDATASIZE PUSH1 0x4 PUSH2 0x294 JUMP JUMPDEST PUSH2 0x25B JUMP JUMPDEST PUSH2 0x85 PUSH2 0x268 JUMP JUMPDEST PUSH2 0x85 PUSH2 0x26C JUMP JUMPDEST PUSH2 0xEF PUSH2 0x270 JUMP JUMPDEST PUSH1 0x40 MLOAD PUSH2 0x92 SWAP2 SWAP1 PUSH2 0x41F JUMP JUMPDEST PUSH2 0x85 PUSH2 0x10A CALLDATASIZE PUSH1 0x4 PUSH2 0x3EB JUMP JUMPDEST PUSH2 0x274 JUMP JUMPDEST TIMESTAMP SWAP1 JUMP JUMPDEST DUP1 MLOAD NUMBER SWAP1 PUSH1 0x60 SWAP1 PUSH8 0xFFFFFFFFFFFFFFFF DUP2 GT DUP1 ISZERO PUSH2 0x130 JUMPI PUSH1 0x0 DUP1 REVERT JUMPDEST POP PUSH1 0x40 MLOAD SWAP1 DUP1 DUP3 MSTORE DUP1 PUSH1 0x20 MUL PUSH1 0x20 ADD DUP3 ADD PUSH1 0x40 MSTORE DUP1 ISZERO PUSH2 0x164 JUMPI DUP2 PUSH1 0x20 ADD JUMPDEST PUSH1 0x60 DUP2 MSTORE PUSH1 0x20 ADD SWAP1 PUSH1 0x1 SWAP1 SUB SWAP1 DUP2 PUSH2 0x14F JUMPI SWAP1 POP JUMPDEST POP SWAP1 POP PUSH1 0x0 JUMPDEST DUP4 MLOAD DUP2 LT ISZERO PUSH2 0x24C JUMPI PUSH1 0x0 PUSH1 0x60 DUP6 DUP4 DUP2 MLOAD DUP2 LT PUSH2 0x183 JUMPI INVALID JUMPDEST PUSH1 0x20 MUL PUSH1 0x20 ADD ADD MLOAD PUSH1 0x0 ADD MLOAD PUSH1 0x1 PUSH1 0x1 PUSH1 0xA0 SHL SUB AND DUP7 DUP5 DUP2 MLOAD DUP2 LT PUSH2 0x1A4 JUMPI INVALID JUMPDEST PUSH1 0x20 MUL PUSH1 0x20 ADD ADD MLOAD PUSH1 0x20 ADD MLOAD PUSH1 0x40 MLOAD PUSH2 0x1BD SWAP2 SWAP1 PUSH2 0x403 JUMP JUMPDEST PUSH1 0x0 PUSH1 0x40 MLOAD DUP1 DUP4 SUB DUP2 PUSH1 0x0 DUP7 GAS CALL SWAP2 POP POP RETURNDATASIZE DUP1 PUSH1 0x0 DUP2 EQ PUSH2 0x1FA JUMPI PUSH1 0x40 MLOAD SWAP2 POP PUSH1 0x1F NOT PUSH1 0x3F RETURNDATASIZE ADD AND DUP3 ADD PUSH1 0x40 MSTORE RETURNDATASIZE DUP3 MSTORE RETURNDATASIZE PUSH1 0x0 PUSH1 0x20 DUP5 ADD RETURNDATACOPY PUSH2 0x1FF JUMP JUMPDEST PUSH1 0x60 SWAP2 POP JUMPDEST POP SWAP2 POP SWAP2 POP DUP2 PUSH2 0x22A JUMPI PUSH1 0x40 MLOAD PUSH3 0x461BCD PUSH1 0xE5 SHL DUP2 MSTORE PUSH1 0x4 ADD PUSH2 0x221 SWAP1 PUSH2 0x43C JUMP JUMPDEST PUSH1 0x40 MLOAD DUP1 SWAP2 SUB SWAP1 REVERT JUMPDEST DUP1 DUP5 DUP5 DUP2 MLOAD DUP2 LT PUSH2 0x237 JUMPI INVALID JUMPDEST PUSH1 0x20 SWAP1 DUP2 MUL SWAP2 SWAP1 SWAP2 ADD ADD MSTORE POP POP PUSH1 0x1 ADD PUSH2 0x16A JUMP JUMPDEST POP SWAP2 POP SWAP2 JUMP JUMPDEST PUSH1 0x0 NOT NUMBER ADD BLOCKHASH SWAP1 JUMP JUMPDEST PUSH1 0x1 PUSH1 0x1 PUSH1 0xA0 SHL SUB AND BALANCE SWAP1 JUMP JUMPDEST DIFFICULTY SWAP1 JUMP JUMPDEST GASLIMIT SWAP1 JUMP JUMPDEST COINBASE SWAP1 JUMP JUMPDEST BLOCKHASH SWAP1 JUMP JUMPDEST DUP1 CALLDATALOAD PUSH1 0x1 PUSH1 0x1 PUSH1 0xA0 SHL SUB DUP2 AND DUP2 EQ PUSH2 0x28F JUMPI PUSH1 0x0 DUP1 REVERT JUMPDEST SWAP2 SWAP1 POP JUMP JUMPDEST PUSH1 0x0 PUSH1 0x20 DUP3 DUP5 SUB SLT ISZERO PUSH2 0x2A5 JUMPI DUP1 DUP2 REVERT JUMPDEST PUSH2 0x2AE DUP3 PUSH2 0x278 JUMP JUMPDEST SWAP4 SWAP3 POP POP POP JUMP JUMPDEST PUSH1 0x0 PUSH1 0x20 DUP1 DUP4 DUP6 SUB SLT ISZERO PUSH2 0x2C7 JUMPI DUP2 DUP3 REVERT JUMPDEST PUSH8 0xFFFFFFFFFFFFFFFF DUP1 DUP5 CALLDATALOAD GT ISZERO PUSH2 0x2DD JUMPI DUP3 DUP4 REVERT JUMPDEST DUP4 CALLDATALOAD DUP5 ADD DUP6 PUSH1 0x1F DUP3 ADD SLT PUSH2 0x2EF JUMPI DUP4 DUP5 REVERT JUMPDEST DUP1 CALLDATALOAD DUP3 DUP2 GT ISZERO PUSH2 0x2FB JUMPI INVALID JUMPDEST PUSH2 0x308 DUP5 DUP6 DUP4 MUL ADD PUSH2 0x4E1 JUMP JUMPDEST DUP2 DUP2 MSTORE DUP5 DUP2 ADD SWAP1 DUP4 DUP7 ADD DUP8 JUMPDEST DUP5 DUP2 LT ISZERO PUSH2 0x3DC JUMPI DUP2 CALLDATALOAD DUP7 ADD PUSH1 0x1F NOT PUSH1 0x40 DUP3 DUP15 SUB DUP3 ADD SLT ISZERO PUSH2 0x334 JUMPI DUP11 DUP12 REVERT JUMPDEST PUSH1 0x40 MLOAD PUSH1 0x40 DUP2 ADD DUP2 DUP2 LT DUP12 DUP3 GT OR ISZERO PUSH2 0x349 JUMPI INVALID JUMPDEST PUSH1 0x40 MSTORE PUSH2 0x357 DUP4 DUP13 ADD PUSH2 0x278 JUMP JUMPDEST DUP2 MSTORE PUSH1 0x40 DUP4 ADD CALLDATALOAD DUP11 DUP2 GT ISZERO PUSH2 0x36A JUMPI DUP13 DUP14 REVERT JUMPDEST DUP1 DUP5 ADD SWAP4 POP POP DUP14 PUSH1 0x3F DUP5 ADD SLT PUSH2 0x37E JUMPI DUP12 DUP13 REVERT JUMPDEST DUP11 DUP4 ADD CALLDATALOAD DUP11 DUP2 GT ISZERO PUSH2 0x38C JUMPI INVALID JUMPDEST PUSH2 0x39C DUP13 DUP5 PUSH1 0x1F DUP5 ADD AND ADD PUSH2 0x4E1 JUMP JUMPDEST SWAP3 POP DUP1 DUP4 MSTORE DUP15 PUSH1 0x40 DUP3 DUP7 ADD ADD GT ISZERO PUSH2 0x3B2 JUMPI DUP13 DUP14 REVERT JUMPDEST DUP1 PUSH1 0x40 DUP6 ADD DUP14 DUP6 ADD CALLDATACOPY DUP3 ADD DUP12 ADD DUP13 SWAP1 MSTORE DUP1 DUP12 ADD SWAP2 SWAP1 SWAP2 MSTORE DUP6 MSTORE POP SWAP3 DUP8 ADD SWAP3 SWAP1 DUP8 ADD SWAP1 PUSH1 0x1 ADD PUSH2 0x314 JUMP JUMPDEST POP SWAP1 SWAP10 SWAP9 POP POP POP POP POP POP POP POP POP JUMP JUMPDEST PUSH1 0x0 PUSH1 0x20 DUP3 DUP5 SUB SLT ISZERO PUSH2 0x3FC JUMPI DUP1 DUP2 REVERT JUMPDEST POP CALLDATALOAD SWAP2 SWAP1 POP JUMP JUMPDEST PUSH1 0x0 DUP3 MLOAD PUSH2 0x415 DUP2 DUP5 PUSH1 0x20 DUP8 ADD PUSH2 0x505 JUMP JUMPDEST SWAP2 SWAP1 SWAP2 ADD SWAP3 SWAP2 POP POP JUMP JUMPDEST PUSH1 0x1 PUSH1 0x1 PUSH1 0xA0 SHL SUB SWAP2 SWAP1 SWAP2 AND DUP2 MSTORE PUSH1 0x20 ADD SWAP1 JUMP JUMPDEST SWAP1 DUP2 MSTORE PUSH1 0x20 ADD SWAP1 JUMP JUMPDEST PUSH1 0x20 DUP1 DUP3 MSTORE PUSH1 0xB SWAP1 DUP3 ADD MSTORE PUSH11 0x10D0531317D19052531151 PUSH1 0xAA SHL PUSH1 0x40 DUP3 ADD MSTORE PUSH1 0x60 ADD SWAP1 JUMP JUMPDEST PUSH1 0x0 PUSH1 0x40 DUP3 ADD DUP5 DUP4 MSTORE PUSH1 0x20 PUSH1 0x40 DUP2 DUP6 ADD MSTORE DUP2 DUP6 MLOAD DUP1 DUP5 MSTORE PUSH1 0x60 DUP7 ADD SWAP2 POP PUSH1 0x60 DUP4 DUP3 MUL DUP8 ADD ADD SWAP4 POP DUP3 DUP8 ADD DUP6 JUMPDEST DUP3 DUP2 LT ISZERO PUSH2 0x4D3 JUMPI DUP8 DUP7 SUB PUSH1 0x5F NOT ADD DUP5 MSTORE DUP2 MLOAD DUP1 MLOAD DUP1 DUP9 MSTORE PUSH2 0x4B4 DUP2 DUP9 DUP11 ADD DUP10 DUP6 ADD PUSH2 0x505 JUMP JUMPDEST PUSH1 0x1F ADD PUSH1 0x1F NOT AND SWAP7 SWAP1 SWAP7 ADD DUP6 ADD SWAP6 POP SWAP3 DUP5 ADD SWAP3 SWAP1 DUP5 ADD SWAP1 PUSH1 0x1 ADD PUSH2 0x48D JUMP JUMPDEST POP SWAP4 SWAP9 SWAP8 POP POP POP POP POP POP POP POP JUMP JUMPDEST PUSH1 0x40 MLOAD DUP2 DUP2 ADD PUSH8 0xFFFFFFFFFFFFFFFF DUP2 GT DUP3 DUP3 LT OR ISZERO PUSH2 0x4FD JUMPI INVALID JUMPDEST PUSH1 0x40 MSTORE SWAP2 SWAP1 POP JUMP JUMPDEST PUSH1 0x0 JUMPDEST DUP4 DUP2 LT ISZERO PUSH2 0x520 JUMPI DUP2 DUP2 ADD MLOAD DUP4 DUP3 ADD MSTORE PUSH1 0x20 ADD PUSH2 0x508 JUMP JUMPDEST DUP4 DUP2 GT ISZERO PUSH2 0x52F JUMPI PUSH1 0x0 DUP5 DUP5 ADD MSTORE JUMPDEST POP POP POP POP JUMP INVALID LOG2 PUSH5 0x6970667358 0x22 SLT KECCAK256 0xB0 LOG2 ISZERO 0xA9 JUMP SELFBALANCE PUSH19 0x62DF99D2B7E80E792B9FF3017A45C908058512 PUSH26 0x8D1163268764736F6C6343000703003300000000000000000000 "
        },
        "gasEstimates": {
          "creation": {
            "codeDepositCost": "277400",
            "executionCost": "318",
            "totalCost": "277718"
          },
          "external": {
            "aggregate((address,bytes)[])": "infinite",
            "getBlockHash(uint256)": "454",
            "getCurrentBlockCoinbase()": "361",
            "getCurrentBlockDifficulty()": "293",
            "getCurrentBlockGasLimit()": "315",
            "getCurrentBlockTimestamp()": "205",
            "getEthBalance(address)": "1145",
            "getLastBlockHash()": "278"
          }
        },
        "methodIdentifiers": {
          "aggregate((address,bytes)[])": "252dba42",
          "getBlockHash(uint256)": "ee82ac5e",
          "getCurrentBlockCoinbase()": "a8b0574e",
          "getCurrentBlockDifficulty()": "72425d9d",
          "getCurrentBlockGasLimit()": "86d516e8",
          "getCurrentBlockTimestamp()": "0f28c97d",
          "getEthBalance(address)": "4d2301cc",
          "getLastBlockHash()": "27e86d6e"
        }
      },
      "storageLayout": {
        "storage": [],
        "types": null
      },
      "userdoc": {
        "kind": "user",
        "methods": {},
        "version": 1
      }
    }
  }
}